:020000040800F2
:10000000B8080020910100085B2B00086F28000849
:10001000592B00082D050008F12E000800000000F3
:100020000000000000000000000000005F2B00083E
:1000300057100008000000005D2B0008612B00082D
:10004000AB010008AB010008AB010008AB010008E0
:10005000AB010008AB010008AB010008AB010008D0
:10006000AB010008591000085F100008AB01000840
:10007000AB010008AB010008AB010008AB010008B0
:10008000AB010008AB010008AB010008AB010008A0
:10009000E52E000831050008AB010008AB0100089F
:1000A000AB010008AB010008AB010008AB01000880
:1000B000AB010008AB010008AB010008AB01000870
:1000C000AB010008AB010008AB010008AB01000860
:1000D000AB010008D92E0008AB010008AB010008F5
:1000E000AB010008AB010008AB01000800F002F80A
:1000F00000F03EF80AA090E8000C82448344AAF184
:100100000107DA4501D100F033F8AFF2090EBAE881
:100110000F0013F0010F18BFFB1A43F0010318473B
:10012000C4390000E4390000103A24BF78C878C10F
:10013000FAD8520724BF30C830C144BF04680C60ED
:10014000704700000023002400250026103A28BF35
:1001500078C1FBD8520728BF30C148BF0B60704739
:100160001FB59DE8030000F0DBF81FBD10B510BD02
:1001700000F05AF91146FFF7F3FF02F0DDFE00F040
:1001800078F903B4FFF7F2FF03BC00F0A9F900000F
:100190000948804709480047FEE7FEE7FEE7FEE71B
:1001A000FEE7FEE7FEE7FEE7FEE7FEE70448054957
:1001B000054A064B70470000C32B0008ED000008FD
:1001C000B8020020B8080020B8040020B8040020BD
:1001D00070B5064600F088F8056806F10B0020F0BF
:1001E0000704B4429CBF002070BD2B466A68BAB1B8
:1001F0001068A04210D304F1080188423CBF506847
:10020000586007D35168101941601168091B0160DB
:1002100058601460101D70BD13465268002AE7D163
:100220002146284600F068F80028DED170BD10B5E0
:10023000203AC0F00B80B1E81850203AA0E81850DE
:10024000B1E81850A0E81850BFF4F5AF5FEA027C9F
:1002500024BFB1E81850A0E8185044BF18C918C00E
:10026000BDE810405FEA827C24BF51F8043B40F8AF
:10027000043B08BF7047D20728BF31F8023B48BF94
:1002800011F8012B28BF20F8023B48BF00F8012BD2
:1002900070474FF0000200B5134694469646203949
:1002A00022BFA0E80C50A0E80C50B1F12001BFF42F
:1002B000F7AF090728BFA0E80C5048BF0CC05DF895
:1002C00004EB890028BF40F8042B08BF704748BFE3
:1002D00020F8022B11F0804F18BF00F8012B704757
:1002E0007047704770470000004870476002002068
:1002F000704770477047704738B504460A4600207B
:100300006946AFF30080002808BF38BD0246009957
:10031000204600F067F8012038BD012000F07CB8CD
:10032000F8B5AFF30080054600200C46102000BF52
:100330000646A819A0420DD9324669460020AFF3FF
:100340000080070008BF00F067F80098A04218BFBF
:100350000546C419FFF7C8FF05600746F01D20F0E9
:1003600007004619284600F00AF8B44208BFF8BD55
:10037000A21B31463868BDE8F84000F033B80021D0
:100380000160C0E9011070471020704770B5044645
:10039000051FFFF7A9FF0068002C14BF446870BD5B
:1003A000002C18BFAC423CBF20466468F8D30168FB
:1003B0000A18AA4218BF456003D12A6805461144AD
:1003C000016028684119A1421CBF6C6070BD616862
:1003D000696021680844286070BD000000487047CB
:1003E00058020020034640688C46002818BF884207
:1003F0003CBF03464068F8D318681844884207D0C9
:100400000CF1030020F00700001D411A521A0146AA
:10041000081D0A60FFF7BABF10B500F039F8BDE853
:10042000104000F02FB870477546FFF7D7FFAE4673
:1004300005006946534620F00700854618B020B5F0
:10044000FFF7B4FEBDE820404FF000064FF0000774
:100450004FF000084FF0000B21F00701AC46ACE86C
:10046000C009ACE8C009ACE8C009ACE8C0098D46D9
:10047000704710B50446AFF300802046BDE8104039
:10048000FFF77FBE002801D000F02AB870470000B7
:1004900010B5012805D0002103A000F027F80120A5
:1004A00010BD09A1F8E7000053494752544D454D8E
:1004B0003A204F7574206F662068656170206D6505
:1004C0006D6F7279000000003A2048656170206D00
:1004D000656D6F727920636F7272757074656400F8
:1004E00001491820ABBEFEE72600020070B50546A4
:1004F0000C460A2000E06D1C00F011F835B1287898
:100500000028F8D102E0641C00F009F814B120784A
:100510000028F8D1BDE870400A20AFF3008008B58C
:1005200069468DF800000320ABBE08BDFEE7000061
:10053000014800F0C9BF0000540000202DE9F0413F
:100540009AB080461E4615461D496846209F00F019
:1005500003FA2422694609A8FFF769FE1C2209A9AB
:1005600012A8FFF764FE1298C0F34710012823D1A8
:10057000134909A800F0F0F9242209A96846FFF7F9
:1005800056FE12A807A900F039F89DF84B00129901
:10059000139C60F31F619DF84F0060F31F643046A9
:1005A00000F060FD2146384600F05CFD2804000C98
:1005B00002D0404600F03CFA1AB0BDE8F0810000DD
:1005C0002802002010B5044600202070FF2262702F
:1005D000A07001EBC100E1708000FFF7F9FDA060A1
:1005E00010BD10B5044600202070FF226270A0707C
:1005F000E1704801FFF7ECFDA06010BD0A780270C1
:100600004A7842708A788270CA78C2700A79027118
:100610004A7942718A798271C979C171704710B57E
:10062000817861B190F90020C378521C92FBF3F4F9
:1006300003FB14220270491E8170002010BD4FF090
:10064000FF3010BD10B5817861B190F90020C378FA
:10065000521C92FBF3F403FB14220270491E8170BA
:10066000002010BD4FF0FF3010BD0FB410B5044690
:1006700000F07CF920B14FF0FF3010BC5DF814FBA6
:1006800094F90100E178401C90FBF1F201FB1200AB
:1006900040B26070A16800EBC00001EB8000242232
:1006A00003A9FFF7C4FDA078401CA0700020E4E778
:1006B0000FB410B5044600F0C6FC20B14FF0FF3077
:1006C00010BC5DF814FB94F90100E178401C90FB2C
:1006D000F1F201FB120040B26070A168202201EB30
:1006E000401003A9FFF7A3FDA078401CA0700020D4
:1006F000E6E7000008B506480090A0F12803054889
:10070000D0E90412A3F58070FFF718FF08BD0000C0
:100710007C010020000000202DE9FC418046224899
:100720001C46154680780F4600283BD11E482C38C1
:100730008078002836D1B88810B9B879002831D02F
:1007400001F048FA194EB168401AB988884229D98F
:100750008DF80050280A8DF80100280C8DF8020051
:10076000280E8DF803008DF80440200A8DF805004E
:10077000200C8DF80600200E8DF807000A482A216B
:100780000822443800F049FC02F0C4FB0649F0603E
:1007900006F10C036A464439404600F045FD01F07D
:1007A00019FAB060BDE8FC81280200204400002056
:1007B00030B40124029D0C624A6100225B010A618F
:1007C000C1E900326B01C1E90232C1E906244A6283
:1007D00030BC00F087BD00002DE9F0410746174806
:1007E00016460C468078002825D114482C3880788D
:1007F000002820D1A08810B9A07900281BD001F0D2
:10080000E9F90F4D6968401AA188884213D90B484D
:100810000A210622443800F000FC02F07BFB074965
:10082000E86005F10C0332464439384600F0FCFC20
:1008300001F0D0F96860BDE8F081000028020020D6
:100840004400002010B504460079002805D1042199
:100850002046FFF7B7FE0120207110BD10B50446F9
:100860000079002805D104212046FFF7BAFE0120B7
:10087000207110BDF0B599B00C4607461D461646CE
:100880001249684600F068F82422694609A8FFF773
:10089000CEFC1C2209A912A8FFF7C9FC1298C0F3CC
:1008A0004710012810D1304600F079FC284600F0AE
:1008B00076FCA088002807D00120A07119B0384626
:1008C000BDE8F04000F036B919B0F0BD28020020B4
:1008D00030B599B00C4605461049684600F03CF822
:1008E0002422694609A8FFF7A2FC1C2209A912A824
:1008F000FFF79DFC1298C0F3471100290CD102F0BC
:1009000037F8A088002807D00120A07119B0284628
:10091000BDE8304000F00EB919B030BD280200200B
:1009200000B599B00B49684600F016F824226946D4
:1009300009A8FFF77CFC1C2209A912A8FFF777FC85
:10094000129800F01F00032801D1FFF7D3FE19B061
:1009500000BD0000280200208A6891F9001001EB18
:10096000C10102EB81012422FFF761BC8178C078CC
:10097000814201D1012070470020704700B599B035
:100980000B496846FFF7E8FF2422694609A8FFF7EC
:100990004EFC1C2209A912A8FFF749FC129800F08E
:1009A0001F00012801D100F0AFF819B000BD000010
:1009B0002802002010B59AB004460E496846FFF799
:1009C000CBFF2422694609A8FFF731FC1C2209A9A4
:1009D00012A8FFF72CFC129911F01F0F07D100F09D
:1009E000F7F81AB02046BDE8104000F007B91AB079
:1009F00010BD00002802002000B599B00B496846E0
:100A0000FFF7AAFF2422694609A8FFF710FC1C2261
:100A100009A912A8FFF70BFC129800F01F0002288A
:100A200001D100F051F919B000BD000028020020EA
:100A300010B504469AB02F48FFF710FF2D496846BD
:100A40002C31FFF789FF2422694609A8FFF7EFFB45
:100A50001C2209A912A8FFF7EAFB12980822C0F38A
:100A60004711032040EA41112248183800F0D5FA16
:100A700002F050FA2049C8601E4909A82C31FFF73E
:100A80006BFF242209A96846FFF7D1FB1A4B1949CD
:100A90000C331839204607AA00F0C6FB002827D0DF
:100AA000144C183C04F10C0007C88DE8070094E8CA
:100AB0000E0004F1240000F0A7FA04F1440109A893
:100AC000FFF74AFF242209A96846FFF7B0FB04F1AB
:100AD0003C0007A9FFF792FD142204F1300168469B
:100AE000FFF7A5FB2434034894E80E00FFF7E0FD70
:100AF0001AB010BDFC01002044000020016000215C
:100B00008180817170470000074B10B5A3F1280266
:100B10000649A2F58070FFF7ADFE0449BDE810401C
:100B200008390348FFF7D4BE7C01002010000020E4
:100B30005400002010B504469AB02348FFF78EFEFB
:100B4000214968462C31FFF707FF2422694609A88E
:100B5000FFF76DFB1C2209A912A8FFF768FB12988A
:100B60000022C0F34711012040EA4111164818380D
:100B700000F053FA02F0CEF91449002201F10C03FF
:100B8000C86011492046183900F04EFB002818D0E3
:100B90000D4C183C04F10C0007C88DE8070094E8E0
:100BA0000E0004F1240000F02FFA142204F13001A9
:100BB0006846FFF73CFB2434034894E80E00FFF737
:100BC00077FD1AB010BD0000FC0100204400002099
:100BD000084A10B5084902F1080000F0A7F9064AD2
:100BE0000448483ABDE81040A2F14801103000F036
:100BF00055B90000000000200C01002010B504468B
:100C00009AB02F48FFF72AFE2D4968462C31FFF78E
:100C1000A3FE2422694609A8FFF709FB1C2209A9A3
:100C200012A8FFF704FB12980222C0F3471100201C
:100C300040EA41112248183800F0EFF902F06AF951
:100C40002049C8601E4909A82C31FFF785FE2422DF
:100C500009A96846FFF7EBFA1A4B19490C33183902
:100C6000204607AA00F0E0FA002827D0144C183CD0
:100C700004F10C0007C88DE8070094E80E0004F1A9
:100C8000240000F0C1F904F1440109A8FFF764FE53
:100C9000242209A96846FFF7CAFA04F13C0007A913
:100CA000FFF7ACFC142204F130016846FFF7BFFAED
:100CB0002434034894E80E00FFF7FAFC1AB010BD84
:100CC000FC0100204400002010B50549054800F053
:100CD00073F90349BDE810400831024800F06CB9CF
:100CE000080000205400002010B504469AB02348A4
:100CF000FFF7B4FD214968462C31FFF72DFE242271
:100D0000694609A8FFF793FA1C2209A912A8FFF760
:100D10008EFA12980022C0F34711022040EA4111D6
:100D20001648183800F079F902F0F4F81449002256
:100D300001F10C03C86011492046183900F074FA1B
:100D4000002818D00D4C183C04F10C0007C88DE8A1
:100D5000070094E80E0004F1240000F055F9142275
:100D600004F130016846FFF762FA2434034894E83E
:100D70000E00FFF79DFC1AB010BD0000FC01002022
:100D80004400002010B5044694B01D4800F055F909
:100D9000002832D11A490BA800F047F920220BA9EC
:100DA00003A8FFF744FA06AB0DF10C0C93E807001B
:100DB0008DE8070012489CE80E00183800F024F96E
:100DC00002F0A8F80F49C8600D4908A800F02DF9F5
:100DD000202208A96846FFF72AFA0A4B08490C3373
:100DE0001839204606AA00F01FFA002805D114B0D1
:100DF0000348BDE81040FFF725BC14B010BD00004B
:100E0000FC01002044000020094910B58978002920
:100E10000CD0FFF7CFFDFFF7B1FDFFF7EDFDFFF7BA
:100E20007FFDBDE810400248FFF7F9BB10BD000090
:100E30002802002000B5184B87B0A3F11C02002146
:100E400000F0C8FA002825D113491C221C39684635
:100E5000FFF7EDF90098C0F3471050B10E491C227E
:100E60001C396846FFF7E3F90098C0F347100128E2
:100E700010D109482838FFF7E5FC07491822103936
:100E80006846FFF7D4F904481C3890E80E000C3887
:100E9000FFF7EBFB07B000BD500200202DE9F04149
:100EA000A4B08846044616461E496846FFF754FD1E
:100EB0002422694609A8FFF7BAF91C2209A912A839
:100EC000FFF7B5F91298C0F34710012827D1012583
:100ED000A57114491BA8FFF73FFD24221BA909A8EF
:100EE000FFF7A5F99DF840700E4912A8FFF734FDF1
:100EF000242212A96846FFF79AF99DF81D0047EAD7
:100F00000020A080084C6078002808D13C21404691
:100F100001F046FA3C21304601F042FA657024B0F7
:100F2000BDE8F08128020020440000202DE9F041B6
:100F3000A4B08846044616461D496846FFF70CFDD6
:100F40002422694609A8FFF772F91C2209A912A8F0
:100F5000FFF76DF91298C0F34710002824D101253E
:100F6000A57113491BA8FFF7F7FC24221BA909A8A8
:100F7000FFF75DF99DF840700D4912A8FFF7ECFCF2
:100F8000242212A96846FFF752F99DF81D0047EA8E
:100F90000020A080074C2078002805D1012231468E
:100FA000404601F0EFFB257024B0BDE8F081000061
:100FB000280200204400002030B599B00C460546B8
:100FC00010496846FFF7C8FC2422694609A8FFF7C4
:100FD0002EF91C2209A912A8FFF729F91298C0F3CB
:100FE0004711206881420AD1A088002807D000203C
:100FF000A07119B02846BDE83040FFF775BE19B0A2
:1010000030BD00002802002070B50DF1100C9CE8E6
:10101000700080E83E00067570BD026100224260EB
:101020008260C2600160027570478A6891F90010A1
:1010300002EB41112022FFF7FAB8807808B10020B6
:101040007047012070478178C078814201D101202A
:101050007047002070477047082000F0BFBC102088
:1010600000F0BCBC436800221B685A62C260028266
:1010700042610276427642830277C283C0E9081257
:10108000704710B50446007E00280DD0204600F0C1
:1010900095F8B4F91E0021884843B4F91A1001EB01
:1010A0008000E0600020207610BD10B541680B681C
:1010B000596A028A89B24FF6FF748A4202D14FF010
:1010C000000210E01B684FEAC36307D2002B03DA6B
:1010D000631A1A44524205E08A1A03E0002BFBDB34
:1010E000A21A0A4412B2C3681A44C260018210BD37
:1010F0004160038102800021C1604161018270472B
:10110000417E09B1012070478189418341680968A6
:101110000968C1F300110177012141760020704771
:101120002DE9F04789460446FFF7ABFF204600F063
:101130002BF8208802F0D7F906468846606902F04D
:10114000BBF907460D46484602F0C8FB0C4A0D4B5A
:1011500002F0DCF93A462B4602F0D8F93246434613
:1011600002F052F806460D46206A02F0B7FB3246FE
:101170002B4601F099FF01F065FF6062BDE8F08742
:10118000182D4454FB21094010B50446FFF78DFF8C
:10119000E068C11700EB91708010606110BD42687B
:1011A000002112685162C16001824161017641767D
:1011B00041830177C18301624162704700B50246F5
:1011C000FFF79EFF002816D0506800680068D18B9A
:1011D000C0F3001038B1491E09B2D183137F834296
:1011E00008D0491C05E0491C09B2D183137F0BB11B
:1011F000491ED183107700BD02898A4201D10121A5
:101200000176704790F82020012A07D0022A05D0E5
:10121000416A41F4802141620120704700684269BF
:101220000A43426100207047F0B590F820500468EE
:10123000A468012D05D0022D03D0416A41F480211C
:101240004DE014F0406F01D1E50045D5C4F30164D1
:101250000125A5401D608D684FF4C0739DB1CE6817
:1012600035434E6845EAC605066803EB0417F55199
:101270004FF4C275076805EB04150E697E51097DB0
:10128000012905D009E00E88CD6845EA4655EBE70F
:1012900001684E5946F480764E511179D2F80550C6
:1012A0004FF4C67641EA0521056806EB0416A951FC
:1012B0001178D2F801204FF4C47541EA0221026886
:1012C00005EB04155151006803EB0411425842F03C
:1012D000010242500020F0BD416A41F40011416218
:1012E0000120F0BD10B590F820300268012B07D026
:1012F000022B05D0416A41F480214162012010BDDA
:10130000D2F8000240F00100C2F80002087D00F0AF
:101310001F0301209840D2F81C328343C2F81C32CC
:10132000CB69B3B9D2F80C328343C2F80C328C8942
:101330004B6864F31F434C6902EBC404C4F84032A9
:101340000C890B6864F31F434C6902EBC404C4F8B6
:101350004432CB69012B16D1D2F80C320343C2F8C8
:101360000C320C884B6864F31F434C6902EBC404D5
:10137000C4F840320C89CB6864F31F434C6902EB1C
:10138000C404C4F844328B69002BD2F804320FD065
:1013900053EA0003C2F804320B69002BD2F814326E
:1013A00008D00343C2F81432096A012904D008E0C6
:1013B0008343EFE78343F5E7D2F81C120143C2F8F9
:1013C0001C12D2F8000220F00100C2F80002002036
:1013D00010BD704770B590F82040012C05D0022C4C
:1013E00003D0416A41F4802128E0046809B32469EC
:1013F000A40720D04FF4D874056804EB01142D59CC
:1014000015F00405956005682D591AD0ED08556052
:1014100005682C5904F00204D4604FF4DA740568AE
:1014200004EB01142E5906F00F06082E0CD30825E4
:101430000DE0E468DCE7416A41F4001141620120FB
:1014400070BD6D0D1560E3E72D5905F00F051561B1
:1014500005682D59C5F30725956105682C59240C9D
:1014600054614FF4DC72046802EB0112A4581C7042
:101470000468A458240A5C700468A458240C9C7066
:101480000468A258120EDA704FF4DE72046802EBA0
:101490000112A4581C710468A458240A5C710468E1
:1014A000A458240C9C710468A258120EDA710068CA
:1014B00029B1016941F020010161002070BDC168BE
:1014C00041F02001C160F8E72DE9F05F05460068B2
:1014D00000244669D0F804908768D0F80CB0D0F8A2
:1014E00010A0D0F81880F10748D0F90714D00121D6
:1014F0008160B80703D5284600F0EBF90CE07807C7
:1015000002D54FF4006407E0380702D54FF4805449
:1015100002E0284600F0DCF9F80516D529684FF4FA
:1015200080708860B80503D5284600F0D4F90CE037
:10153000780502D544F4005407E0380502D544F498
:10154000804402E0284600F0C5F9F80316D5296862
:101550004FF480308860B80303D5284600F0BDF909
:101560000CE0780302D544F4004407E0380302D5C8
:1015700044F4803402E0284600F0AEF9300707D585
:101580005FEACB6004D52968102044F40074C86079
:1015900070074FF0080707D55FEA0B7004D528687D
:1015A000C760284600F062F9B00706D52868C06811
:1015B000800702D0284600F05AF9700607D55FEA86
:1015C000CA6004D52968102044F480640861B0061C
:1015D00007D55FEA0A7004D528680761284600F03D
:1015E00048F9F00606D528680069800702D0284629
:1015F00000F040F9B00308D55FEAC96005D5296855
:1016000010204860284600F036F9F00307D55FEA5D
:10161000097004D528684760284600F05FF9300457
:1016200046D55FEA497040D5F00504D55FEAC87039
:1016300001D044F00104B00504D55FEA887001D5FB
:1016400044F00204700504D55FEA487001D544F007
:101650000404300529D518F0700F26D008F070006A
:10166000402815D006DC102809D020280AD03028C0
:1016700016D10AE050280ED0602811D10EE044F0B7
:1016800008040DE044F010040AE044F0200407E0F0
:1016900044F0400404E044F0800401E044F4807429
:1016A0002868816921F070018161296804204860FF
:1016B000002C05D0686A204368622846FFF789FE3F
:1016C000BDE8F09F70B5040003D094F8200010B17D
:1016D00004E0012070BD204600F082F82068016817
:1016E00041F00101016000F075FA0546052604E0AD
:1016F00000F070FA401B0A2811D820684068C00723
:10170000F6D02068016821F00201016000F062FA61
:1017100005460BE000F05EFA401B0A2806D9606A15
:1017200040F40030606284F82060D2E720684068AE
:101730008007EFD4207E0128206801683DD021F089
:1017400080010160607E01282068016838D021F0A6
:1017500040010160A07E01282068016833D021F09B
:1017600020010160E07E0128206801682ED041F050
:1017700010010160207F01282068016829D021F034
:1017800008010160607F01282068016824D021F0F1
:1017900004010160D4E902010843D4E904121143B1
:1017A00008436168491E08432168C86100206062DF
:1017B000012084F82000002070BD41F08001C0E7C6
:1017C00041F04001C5E741F02001CAE721F01001D6
:1017D000CFE741F00801D4E741F00401D9E7000068
:1017E00010B586B00021009101910291039100682B
:1017F0001B49884232D11B48C16941F00071C16167
:10180000C16901F000710491816941F004018161B5
:101810008069154C00F0040004904FF400600090C3
:101820006946204600F0E6F8A014009002200190DE
:10183000032003906946204600F0DCF800220121D5
:10184000142000F033FA142000F022FA00220121C3
:10185000152000F02BFA152000F01AFA06B010BD82
:101860000064004000100240000801407047FFF78C
:10187000E1BA70477047704770B5044690F8200091
:10188000012804D0606A40F40020606218E0022061
:1018900084F820002068016821F00101016000F057
:1018A00099F905460EE000BF00F094F9401B0A28A4
:1018B00008D9606A40F400306062052084F8200096
:1018C000012070BD20684068C007EDD1606270BD26
:1018D000704770477047704770477047704710B542
:1018E00090F821100022022905D00421816380F89C
:1018F0002020012010BD01680B6823F00E030B604F
:1019000001680B6823F001030B6090F84030C46B52
:10191000012101FA03F3636080F8211080F8202090
:10192000104610BD10B590F821100024022903D0F4
:101930000421816301243DE001680A6822F00E025F
:101940000A6001680A6822F001020A601A4A016806
:10195000914201D1012121E0174A1432914201D173
:1019600010211BE0144A2832914201D1891515E05B
:10197000114A3C32914201D189140FE00E4A503293
:10198000914202D14FF4803108E00B4A6432914217
:1019900002D14FF4801101E04FF08071064A083AFD
:1019A0005160012180F82110002180F82010416B46
:1019B00001B18847204610BD0800024010B504461A
:1019C00001460548FFF718FC21460348BDE81040D2
:1019D0002830FFF711BC000054010020044910B565
:1019E0000A68024202D00860FFF7E8FF10BD00005D
:1019F000140401402DE9F84FDFF8B8910024A9F153
:101A0000040B23460F2709F1040AABF1040EC9E0C9
:101A10000125A5402A40AA427DD1674ED1F804C0D5
:101A2000ACEB0608B44532D014DCBCF1030F3AD05D
:101A300009DCBCF1000F2AD0BCF1010F1CD0BCF1B5
:101A4000020F31D11DE0BCF1110F17D0BCF1120F04
:101A50002AD119E0B8F5881F19D006DCB8F5803F07
:101A600015D0B8F5801F1FD111E0B8F5001F0ED0BA
:101A7000B8F5041F18D10AE0CB6815E0CB681B1D30
:101A800012E0CB6808330FE0CB680C330CE08B68B6
:101A90002BB1012B4FF0080303D0456104E0042370
:101AA00002E0056100E00023FF2A01D8064601E0BC
:101AB00000F104064FEA840501D9A5F12005D6F806
:101AC000008007FA05FC28EA0C0803FA05F548EA45
:101AD0000508C6F800804D68ED0062D5374DAE6947
:101AE00046F00106AE61AD6924F0030605F001057C
:101AF0000095334D06EB050CDCF80850A607360FB1
:101B000007FA06F825EA0805DFF8B880404503D152
:101B10004FF0000817E044E0DFF8AC80404502D108
:101B20004FF001080FE0DFF8A480404502D14FF0EC
:101B3000020808E0DFF89880404502D14FF0030822
:101B400001E04FF0040808FA06F848EA0508CCF866
:101B500008804D68D9F80060ED024D4601D5164366
:101B600000E096432E604D68DAF80060AD025546FD
:101B700001D5164300E096432E604D68DBF8006007
:101B8000AD035D4601D5164300E096432E604D68D7
:101B9000DEF80060ED03754601D5164300E096437C
:101BA0002E60641C0D682A46E5407FF431AFBDE825
:101BB000F88F0000080401400000111000100240DE
:101BC0000000014000080140000C014000100140ED
:101BD0000014014001488068704700001800002090
:101BE0000248816802781144816070471800002023
:101BF000074810B5016841F010010160032000F0B2
:101C000075F80F2000F006F800F024F8002010BD51
:101C10000020024070B50D4D04464FF47A712878CB
:101C2000B1FBF0F00A490968B1FBF0F000F0DCFA12
:101C300048B9102C07D200222146501E00F036F879
:101C400000206C6070BD012070BD000018000020F5
:101C5000240000200C4808B5816941F00101816130
:101C6000816901F001010091C16941F08051C161B8
:101C7000C06900F0805000900448416821F0E061A4
:101C800041F00071416008BD0010024000000140B9
:101C9000002809DB00F01F0201219140400980006B
:101CA00000F1E020C0F8001170470000F0B40E4BC6
:101CB0001B680C46C3F30223C3F10705042D00D9AA
:101CC0000425191D072901D2002300E0DB1E01268F
:101CD00006FA05F1491E214099409E40761E1640A5
:101CE0003143F0BC01F005B90CED00E0064900F00D
:101CF000070208684FF6FF03184040EA0220034A33
:101D000010430860704700000CED00E00000FA0589
:101D10002DE9F0470F46050061D0434E306800F0D2
:101D20000700B84209D2306820F00700384330601D
:101D3000306800F00700B84251D128683B4C810759
:101D400012D5400703D5606840F4E06060602878F1
:101D5000000703D5606840F4605060606068A9685F
:101D600020F0F000084360602878C00728D0686839
:101D7000012810D02168022810D0890700292EDA06
:101D8000616821F0030101436160FFF723FF804692
:101D900041F288390DE021688903EFE78901EDE719
:101DA000FFF718FFA0EB0801494502D90320BDE861
:101DB000F0876068696800F00C00B0EB810FEFD12C
:101DC000306800F00700B8420BD9306820F00700F7
:101DD00038433060306800F00700B84201D001207D
:101DE000E5E72878400705D56068E96820F4E060F9
:101DF000084360602878000706D56068296920F4E8
:101E0000605040EAC100606000F038F86168084A3C
:101E1000C1F30311515CC8400649086006480068D8
:101E2000FFF7F8FE0020C2E7002002400010024049
:101E3000CA3A0008240000201C000020044805497C
:101E400000684968044AC1F30221515CC8407047E8
:101E50002400002000100240DA3A00080448054936
:101E600000684968044AC1F3C221515CC840704708
:101E70002400002000100240DA3A00080E4A51689F
:101E80000E4801F00C03042B11D0082B0FD10C4885
:101E9000C1F38343C903C05C0AD55168084AC1F342
:101EA0004041921E515C054A5043B0FBF1F070472F
:101EB00004494843704700000010024000127A00B5
:101EC000BA3A000800093D002DE9F84F040070D02F
:101ED0002078C04DC00749D06868C0F38100012850
:101EE00007D06868C0F38100022809D16868C00380
:101EF00006D52868800339D560680028E7D035E02A
:101F00006068B0F5803F0BD010B1B0F5A02F11D0B4
:101F1000286820F480302860286820F4802002E0BF
:101F2000286840F480302860606890B1FFF752FE66
:101F300006460AE0286840F480202860F0E700BFE9
:101F4000FFF748FE801B642873D828688003F7D504
:101F50000CE0FFF73FFE064605E000BFFFF73AFE44
:101F6000801B6428F0D828688003F7D420789A4E24
:101F700080074FF001094FF0000839D5686810F06C
:101F80000C0F07D06868C0F38100022809D1686887
:101F9000C00306D42868800714D52069012808D119
:101FA00010E02069B0B1C6F80090FFF713FE0746B5
:101FB00005E00AE1FFF70EFEC01B0228C4D828681E
:101FC0008007F7D52868616920F0F80040EAC10071
:101FD00028600DE0C6F80080FFF7FCFD074604E02E
:101FE000FFF7F8FDC01B022823D828688007F7D424
:101FF000207800072CD57948A169D9B1C0F80090A4
:10200000FFF7E8FD074604E0FFF7E4FDC01B0228E8
:102010000FD8686A8007F7D571484FF4FA51006805
:10202000B0FBF1F0009000BF0098411E0091FAD281
:102030000EE080E0C0F80080FFF7CCFD074604E02A
:10204000FFF7C8FDC01B022875D8686A8007F7D45F
:102050002078400760D5E8690027C00008D4E86907
:1020600040F08050E861E869012700F0805000905E
:102070005C480168C90513D40168834641F4807146
:102080000160FFF7A7FD824606E000BFFFF7A2FD53
:10209000A0EB0A0064284ED8DBF80000C005F5D597
:1020A000E06801280AD008B1052813D0286A20F07A
:1020B00001002862286A20F0040002E0286A40F04B
:1020C00001002862E06841F2883B98B1FFF782FD89
:1020D00082460BE0286A40F004002862EEE700BF69
:1020E000FFF778FDA0EB0A0159455AD8286A800706
:1020F000F6D50CE0FFF76EFD824605E0FFF76AFDBE
:10210000A0EB0A0159454CD8286A8007F6D41FB1C4
:10211000E86920F08050E861E06988B36968C1F33C
:102120008101022944D00228C6F8608004D0FFF75C
:1021300051FD044638E034E0FFF74CFD074604E06B
:10214000FFF748FDC01B02282BD828688001F7D470
:10215000206AB0F5803F05D16868A16820F400309E
:1021600008436860D4E908010843696821F47411E0
:1021700008436860C6F86090FFF72CFD044606E04F
:1021800025E000BFFFF726FD001B022809D82868BC
:102190008001F7D51BE000BFFFF71CFD001B0228E4
:1021A00002D90320BDE8F88F28688001F4D40EE03E
:1021B0000128F7D06868226A00F48031914204D186
:1021C000616A00F47010884201D00120EAE7002023
:1021D000E8E7000000100240000042428004424252
:1021E000240000200070004010B5401EB0F1807F38
:1021F00001D3012010BD4FF0E02460610F21601772
:1022000000F077FE0020A06107202061002010BDB3
:1022100070B590F83C20012A26D0012480F83C407B
:10222000022280F83D2003685A689D6822F07006FB
:102230000A6832435A600D4B02689A4208D0B2F1E4
:10224000804F05D00A4B9A4202D00A4B9A4204D1E1
:10225000496825F080031943916080F83D400021D2
:1022600080F83C10084670BD022070BD002C014073
:1022700000040040000800402DE9F0410D46040034
:1022800003D094F83D0018B108E00120BDE8F081CA
:10229000002084F83C00204600F040F8022084F83A
:1022A0003D002068816844F2070291438160211D4E
:1022B000206800F087FC226890689169166A2B6894
:1022C000AF69034340F20330814341EA0721A86824
:1022D000EF6908434FF6FC418843E96840EA07206C
:1022E000014328692F6A000140EA07300843696802
:1022F0006D6926F0220646EA051529439360226897
:10230000906154F8460B0162012004F81F09E07542
:102310002076E0762077A0750020B7E710B586B06C
:102320000021009101910291039103681949012252
:102330001948B3F1804F1AD0184CA34215D1CB697C
:1023400043F00203CB61CB6903F0020304938B6972
:1023500043F004038B61896901F004010491C021F9
:10236000009102926946FFF745FB06B010BDCB69AC
:1023700043F00103CB61CB6903F0010304938B6944
:1023800043F004038B61896901F004010491032186
:10239000E6E7000000100240000801400004004091
:1023A00070B590F83E60044690F83F5090F8423087
:1023B00090F84320022021B104290ED0012E1BD118
:1023C00014E0012E18D1012B16D184F83E0084F8B8
:1023D000420001220021206820E0012D0CD1012AB9
:1023E0000AD184F83F0084F8430014E0012D03D1A2
:1023F000012B01D1012A01D0012070BD84F83E00DB
:1024000084F83F0084F8420084F843000122002150
:10241000206800F013FC01220421206800F00EFC6B
:102420002068016841F001010160002070BD704723
:1024300070470000F8B5016804460868CA684B692F
:1024400010F00F0F4FF0000559D003F0010602F411
:102450009077374365D0C10705D0D10503D5616CAE
:1024600041F001016164410705D5D90703D0616CD2
:1024700041F002016164810705D5D90703D0616C81
:1024800041F004016164010707D502F020013143E6
:1024900003D0616C41F008016164616C00293AD09D
:1024A000800604D5900602D5204600F003FC206883
:1024B0004069616CC0F38010090700D460B3204606
:1024C00000F0D1FB20684069400621D52068143017
:1024D00050E8001F21F0400140E80012002AF5D129
:1024E000E06BA8B16D494163E06BFFF71BFA002870
:1024F00011D0E06B416B01B0BDE8F04008478306A6
:102500000FD593060DD52046BDE8F84000F0D2BBAC
:102510002046FFF78DFFF8BD2046FFF789FF656471
:10252000F8BD266B2023012E7CD1C6067AD5D606AF
:1025300078D508684868009048694FF00206400660
:1025400040D5E16B086840680004000CE8D0A28D1B
:102550008242E5D9E085886920282DD020680C309A
:1025600050E8001F21F4807140E80012002AF5D1E4
:102570002068143050E8001F21F0010140E80012EB
:10258000002AF5D12068143050E8001F21F04001E6
:1025900040E80012002AF5D184F842302563206813
:1025A0000C3050E8001F21F0100140E80012002A12
:1025B000F5D1E06BFFF793F96663A08DE18D401ACA
:1025C00081B22AE0A08DE18D401A81B2E08D002811
:1025D000A6D00029A4D022680C3252E8000F20F4C3
:1025E000907042E80007002FF5D12068143050E8C1
:1025F000002F22F0010240E80027002FF5D184F8D7
:102600004230256320680C3050E8002F22F0100281
:1026100040E80023002BF5D166632046FFF707FF53
:10262000F8BDFFE705062BD5150629D594F841001E
:102630002128F5D1A068B0F5805F01D12069B0B143
:10264000206A411C2162216800784860E08C401EAD
:102650000004000CE084E3D12068C16821F080010F
:10266000C1602068C16841F04001C160D8E7206ABC
:102670000088C0F308004860206A801C2062E5E7FB
:102680004006CDD55006CBD5CA68204622F0400280
:10269000CA6084F8413000F0E9F8C1E7572C00081F
:1026A00070B5040004D094F84100002510B106E094
:1026B000012070BD84F84050204600F023F824200B
:1026C00084F841002068C16821F40051C1602046AF
:1026D00000F052FB2068016921F4904101612068FB
:1026E000416921F02A0141612068C16841F400512B
:1026F000C1606564202084F8410084F8420065636D
:10270000002070BD30B585B000240094019402947F
:1027100003940068184988422CD11848816941F413
:1027200080418161816901F480410491816941F0B6
:10273000040181618069124D00F0040004904FF49F
:102740000070009002200190032003906946284603
:10275000FFF750F92815CDE9000469462846029490
:10276000FFF748F9002201212520FFF79FFA2520D5
:10277000FFF78EFA05B030BD00380140001002406E
:102780000008014090F84230202B01D00220704711
:1027900021B11AB10023036300F04ABB0120704746
:1027A00010B508490068096888420AD106480078CF
:1027B00000F05EF8BDE81040012203490148FFF730
:1027C000E1BF10BD0C010020000000202DE9F843FE
:1027D000044690F84100984616460D46202802D03F
:1027E0000220BDE8F88385B17EB10020606421201D
:1027F00084F84100FFF7EEF9A6848146E684A068DC
:102800002027B0F5805F02D003E00120E9E72069CE
:1028100010B12E4600250EE000260CE08021204657
:1028200000F021FBA8B9C6B116F8010B2168486079
:10283000E08C401EE084E08C4B464FF00002CDF867
:1028400000800028EAD14FF04001204600F00BFB49
:1028500040B184F841700320C3E735F8020BC0F3A0
:102860000800E3E784F841700020BAE77047FEE70C
:10287000094910B501234A78552800D152B10C7886
:102880001CB1064CA054521C4A70D0B20A2800D980
:102890008B7010BD0B70F4E728000020D8010020D9
:1028A0002DE9F84F06462F480D468178002957D06C
:1028B0002D4CA1780091E278E7798B189346227924
:1028C00061799246894611445A18A1798846114483
:1028D000227A39441144627A1144A831C9B2017193
:1028E0006078532837D1A07A884234D1608800F0CC
:1028F000FAFD6FF00E0201F099F800221B4B00F078
:1029000005FE00F09FFB3060A08800F0ECFD6FF04A
:102910000E0201F08BF80022144B00F0F7FD00F0DE
:1029200091FB7060E08800F0DEFD6FF00E0201F0B8
:102930007DF800220D4B00F0E9FD00F083FBB06054
:102940000098287085F801B085F802A085F80390FA
:1029500085F804806F710348002181700170417017
:10296000BDE8F88F28000020D801002000806640D4
:1029700001490020C87070472800002070B5054646
:10298000FFF728F9124CA168401A64281ED9E17893
:1029900003291BD041B101290BD0022916D1642390
:1029A000052204F1160108E00949642305220C31CF
:1029B00003E007496423052211312846FFF706FF8B
:1029C000E078401CE070FFF705F9A06070BD0000E2
:1029D000280000200E4810B50C490160122141600A
:1029E00000214FF480328160C0E903124161017619
:1029F000417681760122C27601774177FEF762FE49
:102A0000002801D072B6FEE710BD0000006400404F
:102A10005400002000B585B000200390164881695D
:102A200041F020018161816901F0200104918169F7
:102A300041F0040181618069694600F0040004905E
:102A4000182000900D480190012002900C48FEF7DC
:102A5000D1FF002201210920FFF728F90920FFF703
:102A600017F9002201210A20FFF720F90A20FFF7B9
:102A70000FF905B000BD0000001002400000211059
:102A80000008014010B58CB024216846FDF701FC18
:102A90000024154809944FF080410A94C0E90014BD
:102AA0004FF6FF71C0E90241046184610320CDE962
:102AB00000040120CDE902040494CDE90540079407
:102AC000694609480894FFF7D7FB08B172B6FEE7DC
:102AD000099409A904480A94FFF79AFB002801D039
:102AE00072B6FEE70CB010BD7C00002010B58CB0B3
:102AF00024216846FDF7CDFB0024164809941449AB
:102B00000A94C0E900144FF6FF71C0E90241046164
:102B100084610320CDE900040120CDE9020404947E
:102B2000CDE90540079469460A480894FFF7A4FBDD
:102B300008B172B6FEE7099409A906480A94FFF79E
:102B400067FB002801D072B6FEE70CB010BD000094
:102B500000040040C4000020FEE7FEE77047704715
:102B6000FFF73EB830B58FB028216846FDF791FBDE
:102B700014210AA8FDF78DFB01210804CDE90010FE
:102B80000024029402250491CDE907504FF4E0108F
:102B900009906846FFF798F908B172B6FEE70F2072
:102BA000CDE90A054FF48060CDE90C4002210AA866
:102BB0000E94FFF7ADF8002801D072B6FEE70FB013
:102BC00030BD7047F0B50268194B1A4C1A4D4FF0E2
:102BD0008047984205D0B84203D0A04201D0A84215
:102BE00003D122F070064A683243984205D0B842B9
:102BF00003D0A04201D0A84203D122F44074CA6895
:102C000022434C6922F08002224302608A68C26239
:102C10000A688262984201D1096901630121416118
:102C20000169C90703D0016921F001010161F0BD0B
:102C3000002C0140000400400008004010B501F0E5
:102C40001F030121046A99408C430462016A9A407F
:102C50001143016210BD10B5406A0021C185C184D5
:102C6000FFF7E6FB10BD01680C3151E8002F22F49C
:102C7000907241E80023002BF5D10168143151E82E
:102C8000002F22F0010241E80023002BF5D1016B57
:102C9000012909D101680C3151E8002F22F01002FE
:102CA00041E80023002BF5D1202180F842100021BB
:102CB0000163704708B590F84210222901D0022024
:102CC00008BD82684FF480539A4201D1016921B155
:102CD000816A9A421BD04AB10AE00268816A52684E
:102CE000C2F308020A80816A891C08E0026972B195
:102CF0000268526802F07F020A70816A491C816290
:102D0000C18D491E0904090CC18503D01BE002686E
:102D10005268F1E70168CA6822F02002CA600168BF
:102D2000CA6822F48072CA6001684A6922F001020E
:102D30004A61202180F8421000214163026B012A80
:102D400003D0FFF72DFD002008BD016301680C31A1
:102D500051E8002F22F0100241E80023002BF5D1AA
:102D600001680A68D20602D50A6849680091818D17
:102D7000FFF75DFBE7E7000070B5044600680169F6
:102D8000E26821F44051114301612169A0680843C0
:102D9000616908432168CA6841F20C639A4302439F
:102DA000CA6020684169A26921F440711143416100
:102DB0001E492068884202D1FFF750F801E0FFF772
:102DC0003DF800EBC00101EB001260686421800057
:102DD000B2FBF0F3B3FBF1F36FF018067343B2FBF1
:102DE000F0F5B2FBF0F605EB8305322303EB051596
:102DF000B5FBF1F5B6FBF1F605F0F00505EB0615B0
:102E0000B2FBF0F6B2FBF0F0B0FBF1F06FF018029D
:102E1000504306EB800003EB0010B0FBF1F021689B
:102E200000F00F002844886070BD000000380140A9
:102E300081628285C28500214164222180F842108E
:102E4000016921B10168CA6842F48072CA600168F0
:102E50004A6942F001024A610068C16841F02001FC
:102E6000C160002070472DE9F843984617460D468B
:102E70000446089E24E0701C22D0FEF7ABFEA0EBB7
:102E80000800B0421AD8CEB12068C168490717D5EA
:102E9000802D15D0402D13D00168C94309070FD4E8
:102EA00001680025406800902046FFF7DCFE0820FE
:102EB000606484F840500120BDE8F8830320FBE7FC
:102EC0002068006835EA000004D00020B842D2D063
:102ED0000020F1E70120F9E70148FFF7ABBA000055
:102EE0000C0100200148FEF7EFBA0000540000205A
:102EF000FEE70907090E002804DB00F1E02080F856
:102F00000014704700F00F0000F1E02080F8141D5D
:102F10007047000007480168490101D5012070474A
:102F20000168090104D40068C00001D5042070477D
:102F3000022070470864004008B5FEF759FEFFF70D
:102F400011FEFFF767FDFFF745FDFFF79BFDFFF75C
:102F5000CDFD39483749002401604FF41651C0E9CE
:102F600001140C21C460C0E904418461C461FFF70D
:102F700097FB08B172B6FEE72F494FF47A75903986
:102F800008232A4601F1D800FEF7B2F82A49102397
:102F900048392A4601F1B800FEF7AAF82648B838A1
:102FA000FEF76AFC24480221B838FEF72BF92249C3
:102FB0000023A4310A22A1F5AE700094FDF7F8FBBE
:102FC00000211E48FDF79AFD1C4801210830FDF73D
:102FD00095FD194D1A4C483505F128061648B838A4
:102FE000FDF712FF144821464830FEF799F81248C1
:102FF00021467030FEF794F80F48FFF7BFFC0F49E9
:103000000D48C91F9830FFF74BFC0C490A48736AFA
:103010000831B8386A6AFDF77FFB084A0648D21FB4
:10302000D11DB838FDF7D8FB0348B838FDF7AAFE24
:10303000D4E70000003801400C0100200800002007
:103040000000484221F00042A2F16052B2F5801F18
:1030500001F0004328BFD2F17F6C0BD95FEA001C5E
:1030600043EAC20242EB507018BF704728BF20F0FD
:1030700001007047B2F5801FBCBF184670474FEA89
:10308000410C1CF5001F02D2084600F098BC70B538
:1030900000F0E6FA00000089FFF7F6BF4FF00040AD
:1030A000A0F580007047000010B591EA030F48BFFB
:1030B00083F0004300F13083841A71EB030C05D2D6
:1030C000121943EB0C03001B61EB0C01DFF824E148
:1030D0004FEA1154A4EB135C1EEA430F18BF9EEA9B
:1030E000445F73D023EA0E03DCF1200E21EA045181
:1030F00043F4801332D322FA0CFE10EB0E0023FAB5
:103100000CFE41EB0E01CCF1200E03FA0EFE10EB8B
:103110000E0051F10001B1F5801FCCF1200E32D22A
:1031200001EB045112FA0EF2BDE8104058BF70478F
:10313000401C38BF5FEA420218BF7047002814BF26
:1031400020F0010041F100014FEA410313F5001F97
:1031500038BF7047A1F1C04100F0D0BA012A43EB5B
:103160000302ACF1200CDCF11F0E32BF4FF0000E59
:1031700023FA0CF310EB030041EB0451B4EB115FA5
:10318000D0D0A1EB045101F5801149085FEA30006D
:1031900001EB04510ED350F1000038BF12FA0EFEBD
:1031A00008D1BDE81040C9E7401C38BF5FEA4202C1
:1031B000CAD1C3E7BDE810404FEA410313F5001F31
:1031C00038BF7047A1F1C04100F098BA9EEA445F51
:1031D00008D011EA5E0FBDE8104004BF01F00041C5
:1031E00000207047BDE8104070B500F039FA00BF0C
:1031F00064FBBE3E0000E0FF02494FF0000000F01B
:10320000E3BB00BF0000F87F2DE9C04130B4DFF818
:10321000A0C23CEA111418BF3CEA131400F0EC8081
:1032200081EA03051CEA111444EAD57418BF1CEAAC
:10323000131500F0C780A4EB05044FF0004545EAE4
:10324000C12145EAC32341EA505143EA525304F1F4
:103250007F74994204F500344FEAC0204FEAC2223D
:1032600008BF904200F09C804FEA13650FF24016B1
:10327000765D4FEA134506FB05F7C7F1807706FB3D
:1032800007F74FEAD737A7FB03687642C8F58038BF
:10329000A7FB06CE38BFA8F1010807FB08E64FF0F0
:1032A000000EA6FB028CE6FB03CEDCF1000CCEF197
:1032B000004E38BFAEF1010EA6FB0C584FF00007D0
:1032C0004FF00005E6FB0E87A1FB08C6A0FB07CE6A
:1032D00016EB0E0645F10005E1FB076515F1E04E22
:1032E0007EBFA4F580345FEA46066D4116F1800783
:1032F00045F100054FEA17274FEA066647EA0567DA
:10330000A6F1DE46B6F1805F4FEA15251FD9384693
:1033100024F0010C05EBC471BCF1FE6F01EB0C1144
:1033200002D8F0BCBDE8008124425CBF01F5801EDC
:103330009EEAC47F02D4F0BCBDE80081244238D4A8
:10334000F0BCA1F1C041BDE8004100F0D7B94FEA9F
:10335000D22242EA43524FEAD323A7FB02864FEA26
:10336000D02040EA415007FB03661EEA0E0F4FEAE9
:10337000D12105FB026658BFA6EB0056B6EB0056FE
:103380004FEA520E4EEAC37E18EB0E0E56EB530E6A
:10339000BDD518EB02085E417F1C55F10005B6E76C
:1033A0004FF480154FF000074FF000064FF0000873
:1033B000ADE7F0BC4FF0000001F1C04101F0004169
:1033C000BDE8008111EA0C1F0CEA131500D00CE0D7
:1033D00013EA0C1F00F025804FF00000F0BC81EADA
:1033E000030101F00041BDE80081F0BCBDE80041EF
:1033F00081EA030100F082B9F0BCBDE8004170B57C
:1034000000F02EF9097EFC3E00F007B881EA0301C6
:103410004FF0000001F00041704781EA030100F025
:103420006DB9F0BCBDE800414FF000002149704784
:10343000FFFDFBF9F7F5F4F2F0EEEDEBE9E8E6E479
:10344000E3E1E0DEDDDBDAD8D7D5D4D3D1D0CFCD00
:10345000CCCBCAC8C7C6C5C4C2C1C0BFBEBDBCBB39
:10346000BAB9B8B7B6B5B4B3B2B1B0AFAEADACAB34
:10347000AAA9A8A8A7A6A5A4A3A3A2A1A09F9F9E0E
:103480009D9C9C9B9A9999989797969595949393C0
:10349000929191908F8F8E8E8D8C8C8B8B8A898957
:1034A00088888787868585848483838282818180DA
:1034B0000000FF070000F87F10F0004248BF4042C4
:1034C000B0FA80F310FA03F10AD0C3F11D0303F53B
:1034D00080634FEA415002EB035202EBD121704767
:1034E0004FF000007047B0FA80F310FA03F10AD0F1
:1034F000C3F11D0303F580634FEA41504FEA0352C5
:1035000002EBD12170474FF000007047DFF848C14F
:1035100070B51CEA111E1EBF1CEA13159EEA0C0FA3
:1035200095EA0C0F00F06F8081EA030423EA4C1344
:103530004EEAD47E21EA4C1141F4801143F4801309
:10354000AE44A1FB024CA0FB0365AEF17F7E3619B1
:1035500055EB0C05A1FB034C4CF10003A0FB021C36
:1035600016EB0C06654153F10003094218BF46F003
:10357000010613F4007F0BD14FEA03314FEA053007
:10358000340341EA155140EA16506FF003020AE095
:103590004FEAC3214FEAC520F40241EA555140EAFF
:1035A00056506FF0020202EB2E4201EB025585EA03
:1035B000CE710AD05FEA440C18BF24F0004450F1E9
:1035C000000041F1000120EAD47040F2FE7C624527
:1035D00000D270BDA84214BF4FF080444FF0404469
:1035E000002E08BF0024BEF1806FA8BFA1F1C0412A
:1035F000BDE8704080F282804FF0000001F1C041D0
:1036000001F0004170479EEA0C0F0CEA131518BF39
:1036100095EA0C0F06D04FF0000081EA030E0EF081
:10362000004170BD00F01CF88900013E00F007B8B1
:1036300000F009B84FEA430C5FEA5C5C08D081EA0D
:10364000030100F05BB84FEA410C5FEA5C5CF6D125
:103650004FF00000014970470000FF070000F87FAD
:103660000EF1020E2EF0030E5EF8046B364205D406
:10367000012A43EB030515F5001F12D8012841EB81
:10368000010C1CF5001F0CD80ED14FEAD17C15F5AA
:10369000001F0CEB4C0C0CF1020C08BF4CEBD37C64
:1036A00004E04FF0080C01E04FEAD37C0CEB4C0532
:1036B00026FA05F606F00706B6F1040C06D20EEB64
:1036C000860CBDE870404CF0010C6047DFE80CF060
:1036D000090B02024FF000414FF00000A1F500215C
:1036E00070BD19461046012851EB010418BFD4F5EE
:1036F000001484BF002001F0004170BD0808A0F54F
:1037000000114FEA3101704710B591EA030F48BF2D
:1037100083F000433FF5D0AC841A71EB030C07D261
:1037200012198CF0004C43EB0C03001B61EB0C01F5
:10373000DFF8A4E14FEA1154A4EB135C1EEA430F37
:1037400018BF9EEA445F00F0B08023EA6E03524245
:1037500021EA0451C3EB6E0338BF5B1EDCF1200E7F
:1037600025D322FA0CFE10EB0E0043FA0CFE41EBBF
:103770000E01CCF1200E03FA0EFE10EB0E0051F1FB
:103780000001CCF1200E29D412FA0EF201EB045103
:10379000BDE8104058BF7047401C1CBFB2F1004F3D
:1037A000704700280CBF491C20F00100704712EB45
:1037B000020E43EB030218BF4FF0010E4EEA420225
:1037C000ACF1200CDCF11E0E54D943FA0CFE10EBC8
:1037D0000E0051F1FF31CCF11E0ED5D50EF1010EC8
:1037E00012FA0EFE404141EB010101EB445C5FEA3D
:1037F0005C5C10D910EBDE7001EB045138BFBEF1F8
:10380000004FBDE8104018BF704700280CBF491C8E
:1038100020F00100704730D24FEAD42C11F500118E
:1038200024F400641BD0B1FA81F20B3AA41AA41E4E
:10383000D2F12003914030FA03F31943904001EB99
:10384000CC71002C01EB0451BDE81040A8BF7047BB
:1038500001F1C0414FF0000001F000417047B0FAA3
:1038600080F310FA03F100D110BDE41A173C4805AB
:10387000C90AE4E701EB045110BD491001EB045102
:10388000BDE810404FEA300002E04FF00001704701
:103890004A0008BF0042F8D0B2F5001F28BF7047A9
:1038A00001F000414FF0000070479EEA445F07D0EE
:1038B00011EA5E0FBDE8104004BF002100207047F0
:1038C000BDE8104070B5FFF7CBFE00BF40DFF63E0D
:1038D00083F00041104670470000E0FF43004FEACC
:1038E000D30C4FEA3C0C43401FBF40070CF1605122
:1038F00013F0FE4F70471CF0006F03D100200CF056
:10390000004170470CF0004343EA507010B540EAA4
:10391000CC0000F00EF800BF000000924FEA00015A
:10392000FFF7ECBE4FF000414FF00000A1F5002181
:1039300070470EF1020E2EF0030E5EF8044B244287
:1039400004D44FEA4102B2F17F4F11D84FEA40034D
:10395000B3F17F4F0CD80ED14FEAD07CB2F17F4F3C
:103960000CEB4C0C0CF1020C08BF4CEBD17C04E0CE
:103970004FF0080C01E04FEAD17C0CEB4C0324FA29
:1039800003F404F00704B4F1040C06D20EEB840C2B
:10399000BDE810404CF0010C6047DFE80CF0070870
:1039A00002024FF00040A0F5800010BD0846420022
:1039B00018BFD2F1807288BF00F0004010BDFF2117
:1039C00041EAD050C00570470CF00F03092B08BF27
:1039D000082000F059800A2B0BD0082B18BF704725
:1039E00008BF1CF0400F0AD04FF000004FF000015C
:1039F00070471CF0400F18BF4FF0004070471CF09C
:103A0000100F08D020F0704300F07F4242EAD3014B
:103A10004FEA4370704700F0604021F07F4242EA75
:103A2000000201F07F4040EA727070474FF0FF0CD7
:103A30004CF4E06C1CEA11531CBF9CEA030C944547
:103A4000C2BFDA4201EB02517047002B0DD0BCF12E
:103A5000000F0FD0002A01F00041A4BF41F0E04167
:103A600041F07F614FF00000704701F000414FF0DE
:103A70000000704750EA01334FF09B0C18BF4CF028
:103A8000806C7FF4B9AB70471CF4801F11D01CF41C
:103A9000E02F03D06FEACC31490070474FF040501F
:103AA000EFF3008222F0704242EA000282F30088C3
:103AB00070474FF00000704701020203040506073B
:103AC00008090A0B0C0D0E0F10100000000000007A
:103AD00000000102030406070809000000000102BB
:103AE00003040000043B0008000000205400000014
:103AF00028010008583B000854000020640800001A
:103B00004401000800000000000000000000000068
:103B100000000000000000000000000001000000A4
:103B2000100000000000000000127A0000000000F9
:103B30000000000000000000FFAA6988B5FFAA018C
:103B40000400FFAA000000000000000000000000C8
:083B500000000000000000006D
:04000005080000ED02
:00000001FF
